:100000000C9461000C947E000C947E000C947E0095
:100010000C947E000C947E000C947E000C947E0068
:100020000C947E000C947E000C947E000C947E0058
:100030000C947E000C947E000C947E000C947E0048
:100040000C947E000C947E000C944D030C947E0066
:100050000C947E000C947E000C947E000C947E0028
:100060000C947E000C947E0008000000BE9224498F
:10007000123EABAAAA2ABECDCCCC4C3E00000080DA
:10008000BEABAAAAAA3E00000000BF000000803F4D
:100090000000000000084178D3BB4387D1133D190D
:1000A0000E3CC3BD4282AD2B3E68EC8276BED98F3A
:1000B000E1A93E4C80EFFFBE01C4FF7F3F0000007E
:1000C000000011241FBECFEFD8E0DEBFCDBF11E08E
:1000D000A0E0B1E0E2EBFEE002C005900D92A83096
:1000E000B107D9F721E0A8E0B1E001C01D92AD3120
:1000F000B207E1F70E94DB030C9457070C94000051
:10010000ECE7F0E0808181648083EAE7F0E08081C1
:1001100087688083089580917A00806480937A0054
:1001200080917A0086FDFCCF8091780090917900D3
:10013000089528985F9818BC17BC2FEF30E0FC0199
:10014000318320830895209A8AB1806E8AB90895F8
:100150008F929F92AF92BF92CF92DF92EF92FF92D7
:100160000E948B00BC0180E090E00E94A50520E089
:1001700030E040EA50E40E94AC0620E030EC4FE76B
:1001800054E40E9404056B017C019B01AC0160E01A
:1001900070E080EA90E40E9492044B015C0120E050
:1001A00030E44CE156E4C701B6010E9404059B010E
:1001B000AC01C501B4010E94040520E030E44CE12B
:1001C00056E40E9404050E9464062CE13AEA43E8E2
:1001D00059E30E94AC062FE03FEC4BE55BE30E9445
:1001E00093049B01AC0160E070E080E89FE30E9413
:1001F000040523E333E948E853E40E949204FF90A6
:10020000EF90DF90CF90BF90AF909F908F90089528
:100210005D9818BC5E9A08955E9817BC5D9A089523
:10022000CF92DF92EF92FF926B017C01BA01550FE2
:10023000880B990B0E94A705A70196010E94FF0455
:1002400087FF05C00E94080180E090E004C00E9482
:100250000C0181E090E0FF90EF90DF90CF90089547
:100260002F923F924F925F926F927F928F929F92C6
:10027000AF92BF92CF92DF92EF92FF920F931F93B4
:10028000CF93DF93CDB7DEB768970FB6F894DEBF94
:100290000FBECDBF698B7A8B8B8B9C8B2D833E835E
:1002A0004F835887ED86FE860F87188B89AD9AADF0
:1002B00019821A82009759F01B821C8210E000E01C
:1002C000019759F48FE7382E93E4292E08C09FE751
:1002D0009B83A3ECAC8310E000E0312C212C20E0C8
:1002E00030E0A90169A97AA98BA99CA90E94FF0401
:1002F000811108C080E090E0A0E8BFE389AB9AAB31
:10030000ABABBCAB29A93AA94BA95CA96DA57EA54D
:100310008FA598A90E9404056D8B7E8B8F8B988F7B
:100320008091100190911101A0911201B0911301DF
:1003300089879A87AB87BC879C01AD0160911401C6
:100340007091150180911601909117010E949204FD
:100350002B013C01A60195016D857E858F859889CD
:100360000E94AC062DEC3CEC4CEC5DE30E94AC062C
:100370009B01AC01C301B2010E94AC0620910C01AB
:1003800030910D0140910E0150910F010E94930494
:100390002B013C012DEC3CEC4CEC5DE36D897E893E
:1003A0008F89988D0E9493044B015C019B01AC01E5
:1003B0006D897E898F89988D0E940405209108019E
:1003C0003091090140910A0150910B010E94AC0645
:1003D0006B017C012D853E854F8558896DA57EA5D5
:1003E0008FA598A90E94AC06A50194010E9404055E
:1003F0004B015C0129853A854B855C856D817E8149
:100400008F8198850E9492049B01AC01C501B401C3
:100410000E94AC069B01AC01C701B6010E94920488
:100420006B017C0120E030E0A9016D857E858F8520
:1004300098890E94FF04882349F12D813E814F81D4
:10044000588569897A898B899C890E9492042D85B7
:100450003E854F8558890E94AC064B015C01A7017F
:100460009601C301B2010E9493049B01AC01C50136
:10047000B4010E9493042DA93EA94FA958AD0E9432
:100480009304B62EA72E982E892E04C0B12CA12C31
:10049000912C812C8D819E81AF81B8858093100134
:1004A00090931101A0931201B093130189899A8945
:1004B000AB89BC898093140190931501A093160118
:1004C000B0931701C0920801D0920901E0920A018D
:1004D000F0920B01212F302F432D522D6B2D7A2DB1
:1004E000892D982D0E94570618168CF029813A8183
:1004F0004B815C816B2D7A2D892D982D0E94FF04F4
:1005000018163CF0B980AA809B808C8002C05801EC
:100510004101A9ADBAADAB2B79F4A3019201698178
:100520007A818B819C810E94570687FD41C0898119
:100530009A81AB81BC8133C020E030E044E452E4D6
:100540006D817E818F8198850E94570687FD15C039
:10055000212F302F432D522D6B2D7A2D892D982D43
:100560000E94FF04811109C010920C0110920D012C
:1005700010920E0110920F0148C089AD9AAD0197FB
:1005800019F5A3019201612F702F832D922D0E94E6
:10059000FF0487FF19C0812F902FA32DB22D8093C8
:1005A0000C0190930D01A0930E01B0930F012DC08B
:1005B00020E030E044E452E46D817E818F819885B3
:1005C0000E94570687FF41C020E030E040E251EC36
:1005D0006D817E818F8198850E94FF0418166CF0D2
:1005E00029813A814B815C816B2D7A2D892D982D43
:1005F0000E94FF04882309F4B7CF40920C01509267
:100600000D0160920E0170920F016B2D7A2D892DD4
:10061000982D0E947605862F68960FB6F894DEBF57
:100620000FBECDBFDF91CF911F910F91FF90EF9043
:10063000DF90CF90BF90AF909F908F907F906F9002
:100640005F904F903F902F900895212F302F432D92
:10065000522D6B2D7A2D892D982D0E94FF0481112A
:10066000B3CF82CF8AB1806E8AB984B184B917BC06
:1006700018BC84B5836A84BD85B5816085BD089545
:1006800087BD18BC08956115710511F487BD0895E3
:100690006130710509F488BD08951F920F920FB65D
:1006A0000F9211242F933F934F935F936F937F93F8
:1006B0008F939F93AF93BF93EF93FF930E94D403C5
:1006C000823739F0833771F486E091E00E94990017
:1006D00009C00E94D403082E000C990B90930701C7
:1006E00080930601FF91EF91BF91AF919F918F9100
:1006F0007F916F915F914F913F912F910F900FBE1E
:100700000F901F9018951092C50087E68093C40043
:1007100086E08093C20088E98093C100089590919B
:10072000C00095FFFCCF8093C6000895AF92BF92A2
:10073000CF92DF92EF92FF920F931F93CF93DF93AD
:10074000CDB7DEB78B01ADB6BEB62DB73EB7261B13
:10075000370B0FB6F8943EBF0FBE2DBFEDB7FEB7F7
:1007600031967F01AB01BC01CF010E944E076701AA
:10077000C6018E199F098017910734F4F601819103
:100780006F010E948F03F4CF0FB6F894BEBE0FBE68
:10079000ADBEDF91CF911F910F91FF90EF90DF9051
:1007A000CF90BF90AF9008958091C00087FFFCCF9D
:1007B0008091C60008950E94A30086E091E00E9407
:1007C00099000E9432030E9483030E948000789463
:1007D0004FE3942E5AEF852E60EC762E73E8672E49
:1007E0000E94A8006093190170931A0180931B0165
:1007F00090931C010E94A800609302017093030172
:10080000809304019093050184E70E948F0364E0C4
:1008100070E082E091E00E9496032FEF31EE84E0D9
:10082000215030408040E1F700C0000040910601B7
:10083000509107014F3F510599F260911901709154
:100840001A0180911B0190911C010E94100190934C
:100850000101809300010E94A8001B012C016093FC
:10086000020170930301809304019093050160914C
:10087000060170910701072E000C880B990B0E944E
:10088000A705209101012F93209100012F931F9222
:100890001F921F921F921F921F921F921F929F9250
:1008A0008F927F926F922AE4A22E2CE0B22E22E049
:1008B000C22E2EE3D22E1EEAE12E17E4F12E09E01D
:1008C00011E4A20191010E943001C0910001D09178
:1008D00001012DB73EB7225F3F4F0FB6F8943EBFE0
:1008E0000FBE2DBF209761F4682F70E080E090E08C
:1008F0000E94A50590580E9476056093180105C0D6
:10090000C130D10511F480931801BE018091180106
:100910000E94430380E70E948F03809118010E9488
:100920008F035ECF5058BB27AA270E94AA040C94BD
:100930001D060E940F0638F00E94160620F039F4BA
:100940009F3F19F426F40C940C060EF4E095E7FB97
:100950000C940606E92F0E942E0658F3BA17620778
:1009600073078407950720F079F4A6F50C945006D8
:100970000EF4E0950B2EBA2FA02D0B01B9019001BA
:100980000C01CA01A0011124FF27591B99F0593FFE
:1009900050F4503E68F11A16F040A22F232F342F46
:1009A0004427585FF3CF469537952795A795F04094
:1009B0005395C9F77EF41F16BA0B620B730B840BA9
:1009C000BAF09150A1F0FF0FBB1F661F771F881F61
:1009D000C2F70EC0BA0F621F731F841F48F48795B9
:1009E00077956795B795F7959E3F08F0B0CF9395AB
:1009F000880F08F09927EE0F9795879508950E9424
:100A0000E20508F481E008950E9418050C941D0683
:100A10000E94160658F00E940F0640F029F45F3F2E
:100A200029F00C94060651110C9451060C940C06F6
:100A30000E942E0668F39923B1F3552391F3951B79
:100A4000550BBB27AA2762177307840738F09F5FEF
:100A50005F4F220F331F441FAA1FA9F335D00E2E5C
:100A60003AF0E0E832D091505040E695001CCAF7C9
:100A70002BD0FE2F29D0660F771F881FBB1F26178C
:100A800037074807AB07B0E809F0BB0B802DBF0163
:100A9000FF2793585F4F3AF09E3F510578F00C9432
:100AA00006060C9451065F3FE4F3983ED4F3869516
:100AB00077956795B795F7959F5FC9F7880F911D53
:100AC0009695879597F90895E1E0660F771F881F3F
:100AD000BB1F621773078407BA0720F0621B730BF2
:100AE000840BBA0BEE1F88F7E09508950E94360636
:100AF00088F09F5798F0B92F9927B751B0F0E1F0DF
:100B0000660F771F881F991F1AF0BA95C9F714C08E
:100B1000B13091F00E945006B1E008950C94500657
:100B2000672F782F8827B85F39F0B93FCCF38695C7
:100B300077956795B395D9F73EF490958095709524
:100B400061957F4F8F4F9F4F0895E89409C097FBA1
:100B50003EF490958095709561957F4F8F4F9F4F94
:100B60009923A9F0F92F96E9BB279395F6958795D8
:100B700077956795B795F111F8CFFAF4BB0F11F49B
:100B800060FF1BC06F5F7F4F8F4F9F4F16C0882342
:100B900011F096E911C0772321F09EE8872F762F78
:100BA00005C0662371F096E8862F70E060E02AF0B9
:100BB0009A95660F771F881FDAF7880F96958795A5
:100BC00097F90895990F0008550FAA0BE0E8FEEF7A
:100BD00016161706E807F907C0F012161306E40701
:100BE000F50798F0621B730B840B950B39F40A26FA
:100BF00061F0232B242B252B21F408950A2609F4D8
:100C0000A140A6958FEF811D811D089597F99F67DB
:100C100080E870E060E008959FEF80EC0895002484
:100C20000A941616170618060906089500240A9451
:100C300012161306140605060895092E0394000CD7
:100C400011F4882352F0BB0F40F4BF2B11F460FF66
:100C500004C06F5F7F4F8F4F9F4F089557FD90588F
:100C6000440F551F59F05F3F71F04795880F97FB70
:100C7000991F61F09F3F79F087950895121613062A
:100C80001406551FF2CF4695F1DF08C01616170659
:100C90001806991FF1CF869571056105089408958E
:100CA000E894BB2766277727CB0197F908950E9420
:100CB000E20508F48FEF089516F00C9419070C94D0
:100CC0000C0668940C9406060E943606A8F3992335
:100CD000C1F3AEF3DF93CF931F930F93FF92C92F0E
:100CE000DD2788232AF02197660F771F881FDAF700
:100CF00020E030E040E85FEB9FE3883920F0803E61
:100D000038F021968F770E949304E8E6F0E004C063
:100D10000E949304E5E9F0E00E9427078B01BE01E1
:100D2000EC01FB2E6F5771097595771F880B990B96
:100D30000E94A70528E132E741E35FE30E94BF0676
:100D4000AF2D9801AE01FF900F911F91CF91DF91D0
:100D50000E94AA040C941D060E94BF060C941D0656
:100D60000E940F0638F00E94160620F0952311F01D
:100D70000C9406060C940C0611240C9451060E9447
:100D80002E0670F3959FC1F3950F50E0551F629F9B
:100D9000F001729FBB27F00DB11D639FAA27F00DD4
:100DA000B11DAA1F649F6627B00DA11D661F829FFB
:100DB0002227B00DA11D621F739FB00DA11D621FE0
:100DC000839FA00D611D221F749F3327A00D611DFD
:100DD000231F849F600D211D822F762F6A2F1124DF
:100DE0009F5750409AF0F1F088234AF0EE0FFF1F12
:100DF000BB1F661F771F881F91505040A9F79E3F69
:100E0000510580F00C9406060C9451065F3FE4F304
:100E1000983ED4F3869577956795B795F795E795BE
:100E20009F5FC1F7FE2B880F911D9695879597F9C7
:100E300008959F3F31F0915020F4879577956795FD
:100E4000B795880F911D9695879597F90895DF932B
:100E5000CF931F930F93FF92EF92DF927B018C0150
:100E6000689406C0DA2EEF010E94BF06FE01E894E6
:100E7000A5912591359145915591A6F3EF010E94D9
:100E8000AA04FE019701A801DA9469F7DF90EF90B8
:100E9000FF900F911F91CF91DF910895FB01DC012D
:100EA00002C001900D9241505040D8F70895F89437
:020EB000FFCF72
:080EB200020000007F430C0068
:00000001FF
