:100000000C9461000C947E000C947E000C947E0095
:100010000C947E000C947E000C947E000C947E0068
:100020000C947E000C947E000C947E000C947E0058
:100030000C947E000C947E000C947E000C947E0048
:100040000C947E000C947E000C94E9040C947E00C9
:100050000C947E000C947E000C947E000C947E0028
:100060000C947E000C947E0008000000BE9224498F
:10007000123EABAAAA2ABECDCCCC4C3E00000080DA
:10008000BEABAAAAAA3E00000000BF000000803F4D
:100090000000000000084178D3BB4387D1133D190D
:1000A0000E3CC3BD4282AD2B3E68EC8276BED98F3A
:1000B000E1A93E4C80EFFFBE01C4FF7F3F0000007E
:1000C000000011241FBECFEFD8E0DEBFCDBF11E08E
:1000D000A0E0B1E0E4E4F2E102C005900D92A034AA
:1000E000B107D9F721E0A0E4B1E001C01D92A93524
:1000F000B207E1F70E9477050C9420090C940000E8
:10010000ECE7F0E0808181648083EAE7F0E08081C1
:1001100087688083089580917A00806480937A0054
:1001200080917A0086FDFCCF8091780090917900D3
:10013000089528985F9818BC17BC2FEF30E0FC0199
:1001400031832083089528985F9818BC17BC0895C0
:10015000209A8AB1806E8AB908958F929F92AF9249
:10016000BF92CF92DF92EF92FF920E948B00BC0170
:1001700080E090E00E946E0720E030E040EA50E42A
:100180000E94750820E030EC4FE754E40E94C60658
:100190006B017C019B01AC0160E070E080EA90E4BF
:1001A0000E9454064B015C0120E030E44CE156E42F
:1001B000C701B6010E94C6069B01AC01C501B4018E
:1001C0000E94C60620E030E44CE156E40E94C606D8
:1001D0000E942D082CE13AEA43E859E30E94750891
:1001E0002FE03FEC4BE55BE30E9455069B01AC0121
:1001F00060E070E080E89FE30E94C60623E333E9F5
:1002000048E853E40E945406FF90EF90DF90CF90AF
:10021000BF90AF909F908F9008955F9818BC289AD8
:100220000895289817BC5F9A0895CF92DF92EF92B5
:10023000FF926B017C01BA01550F880B990B0E944C
:100240007007A70196010E94C10687FF05C00E94A2
:100250000D0180E090E004C00E94110181E090E077
:10026000FF90EF90DF90CF9008952F923F924F92A2
:100270005F926F927F928F929F92AF92BF92CF9236
:10028000DF92EF92FF920F931F93CF93DF93CDB73F
:10029000DEB768970FB6F894DEBF0FBECDBF698B8F
:1002A0007A8B8B8B9C8B2D833E834F835887ED8677
:1002B000FE860F87188B89AD9AAD19821A82009736
:1002C00059F01B821C8210E000E0019759F48FE77F
:1002D000382E93E4292E08C09FE79B83A3ECAC83C0
:1002E00010E000E0312C212C20E030E0A90169A9C8
:1002F0007AA98BA99CA90E94C106811108C080E03F
:1003000090E0A0E8BFE389AB9AABABABBCAB29A94B
:100310003AA94BA95CA96DA57EA58FA598A90E94B5
:10032000C6066D8B7E8B8F8B988F80914801909144
:100330004901A0914A01B0914B0189879A87AB8707
:10034000BC879C01AD0160914C0170914D01809181
:100350004E0190914F010E9454062B013C01A601D1
:1003600095016D857E858F8598890E9475082DEC95
:100370003CEC4CEC5DE30E9475089B01AC01C301B1
:10038000B2010E94750820914401309145014091CD
:100390004601509147010E9455062B013C012DEC6E
:1003A0003CEC4CEC5DE36D897E898F89988D0E94D1
:1003B00055064B015C019B01AC016D897E898F89DB
:1003C000988D0E94C60620914001309141014091D4
:1003D0004201509143010E9475086B017C012D85FB
:1003E0003E854F8558896DA57EA58FA598A90E9449
:1003F0007508A50194010E94C6064B015C01298580
:100400003A854B855C856D817E818F8198850E94C0
:1004100054069B01AC01C501B4010E9475089B0103
:10042000AC01C701B6010E9454066B017C0120E0BB
:1004300030E0A9016D857E858F8598890E94C1066F
:10044000882349F12D813E814F81588569897A89B8
:100450008B899C890E9454062D853E854F8558893D
:100460000E9475084B015C01A7019601C301B2010E
:100470000E9455069B01AC01C501B4010E945506BE
:100480002DA93EA94FA958AD0E945506B62EA72EFC
:10049000982E892E04C0B12CA12C912C812C8D81F9
:1004A0009E81AF81B8858093480190934901A093C4
:1004B0004A01B0934B0189899A89AB89BC898093A1
:1004C0004C0190934D01A0934E01B0934F01C09207
:1004D0004001D0924101E0924201F0924301212F6C
:1004E000302F432D522D6B2D7A2D892D982D0E9462
:1004F000200818168CF029813A814B815C816B2D84
:100500007A2D892D982D0E94C10618163CF0B980CD
:10051000AA809B808C8002C058014101A9ADBAAD70
:10052000AB2B79F4A301920169817A818B819C8143
:100530000E94200887FD41C089819A81AB81BC81DE
:1005400033C020E030E044E452E46D817E818F814D
:1005500098850E94200887FD15C0212F302F432D3C
:10056000522D6B2D7A2D892D982D0E94C106811157
:1005700009C0109244011092450110924601109258
:10058000470148C089AD9AAD019719F5A3019201C1
:10059000612F702F832D922D0E94C10687FF19C0F5
:1005A000812F902FA32DB22D80934401909345016C
:1005B000A0934601B09347012DC020E030E044E411
:1005C00052E46D817E818F8198850E94200887FF8B
:1005D00041C020E030E040E251EC6D817E818F81AE
:1005E00098850E94C10618166CF029813A814B81CA
:1005F0005C816B2D7A2D892D982D0E94C106882350
:1006000009F4B7CF409244015092450160924601EF
:10061000709247016B2D7A2D892D982D0E943F07EE
:10062000862F68960FB6F894DEBF0FBECDBFDF9160
:10063000CF911F910F91FF90EF90DF90CF90BF90DF
:10064000AF909F908F907F906F905F904F903F9072
:100650002F900895212F302F432D522D6B2D7A2D61
:10066000892D982D0E94C1068111B3CF82CF2F9280
:100670003F924F925F926F927F928F929F92AF9232
:10068000BF92CF92DF92EF92FF920F931F93CF937F
:10069000DF9300D000D000D0CDB7DEB75B01922E43
:1006A000832E342E252E9E838D8329833A834B837C
:1006B0005C83412C512C320100E010E00A151B052F
:1006C00064F5ED81FE812481358146815781692D54
:1006D000782D832D922D0E9454066B017C01E894A5
:1006E000F7F8A701960169817A818B819C810E942C
:1006F0002008181654F4ED81FE81408051806280FC
:100700007380C982DA82EB82FC820F5F1F4F8D817A
:100710009E8108969E838D83D1CFC301B201269618
:100720000FB6F894DEBF0FBECDBFDF91CF911F9102
:100730000F91FF90EF90DF90CF90BF90AF909F9080
:100740008F907F906F905F904F903F902F90089583
:100750002F923F924F925F926F927F928F929F92D1
:10076000AF92BF92CF92DF92EF92FF920F931F93BF
:10077000CF93DF93CDB7DEB7AE970FB6F894DEBF59
:100780000FBECDBF2B013C015EA74DA7190188E22A
:10079000E8E1F1E0DE01119601900D928A95E1F712
:1007A0000E94AD006B017C01A30192010E945406DE
:1007B0009B01AC0165E070E0CE0101960E94370319
:1007C0004B015C01C301B2010E943807072E000CE7
:1007D000880B990B0E9470079B01AC01C701B60101
:1007E0000E94200818162CF40E940D0100E010E071
:1007F00004C00E94110101E010E0C501B4019F771F
:100800000E943F07862FB8010E94DF040E94AD00BE
:100810009B01AC01C701B6010E9454069F7720E0FE
:1008200030E040E05FE30E94C10687FF07C08FE32E
:100830009CE90197F1F700C00000E8CF812C912CD2
:100840005401012BD1F50E94AD000E943807072EFC
:10085000000C880B990B0E94700769A77AA78BA7D9
:100860009CA7A7019601C301B2010E9454062EEA7B
:1008700037E441E25FE30E947508A70196010E94F8
:1008800055069B01AC0169A57AA58BA59CA50E9484
:10089000200818160CF042C0EFE3FCE93197F1F79D
:1008A00000C0000020E030E040E85FE3C501B40193
:1008B0000E9455064B015C01C6CF0E94AD0069A79E
:1008C0007AA78BA79CA7A7019601C301B2010E943A
:1008D00054062EEA37E441E25FE30E947508A7015F
:1008E00096010E9455069B01AC0169A57AA58BA5CE
:1008F0009CA50E94C10687FF11C08FE39CE9019768
:10090000F1F700C0000020E030E040E85FE3C501FF
:10091000B4010E9455064B015C01CFCF20E030E0CE
:1009200040E251E4C501B4010E9475086B017C01ED
:100930000E94A300A701960160E070E080E09FE3C1
:100940000E94C606F101608371838283938320E055
:1009500030E040E05FE3C701B6010E947508EDA5F5
:10096000FEA56083718382839383AE960FB6F8945D
:10097000DEBF0FBECDBFDF91CF911F910F91FF90D2
:10098000EF90DF90CF90BF90AF909F908F907F902F
:100990006F905F904F903F902F9008958AB1806E36
:1009A0008AB984B184B917BC18BC84B5836A84BD84
:1009B00085B5816085BD089587BD18BC0895611512
:1009C000710511F487BD08956130710509F488BD82
:1009D00008951F920F920FB60F9211242F933F93F9
:1009E0004F935F936F937F938F939F93AF93BF9337
:1009F000EF93FF930E947005823739F0833771F4CB
:100A000086E191E00E94990009C00E947005082EBD
:100A1000000C990B9093170180931601FF91EF91B1
:100A2000BF91AF919F918F917F916F915F914F9106
:100A30003F912F910F900FBE0F901F90189510921D
:100A4000C50087E68093C40086E08093C20088E9F1
:100A50008093C10008959091C00095FFFCCF8093D2
:100A6000C6000895AF92BF92CF92DF92EF92FF92AD
:100A70000F931F93CF93DF93CDB7DEB78B01ADB646
:100A8000BEB62DB73EB7261B370B0FB6F8943EBF48
:100A90000FBE2DBFEDB7FEB731967F01AB01BC0194
:100AA000CF010E9417096701C6018E199F0980179F
:100AB000910734F4F60181916F010E942B05F4CF68
:100AC0000FB6F894BEBE0FBEADBEDF91CF911F91A1
:100AD0000F91FF90EF90DF90CF90BF90AF9008956F
:100AE0008091C00087FFFCCF8091C6000895CF930E
:100AF000DF9300D000D0CDB7DEB70E94A80086E11A
:100B000091E00E9499000E94CE040E941F050E945D
:100B10008000789485E5C82E81E0D82E96E0E92EF5
:100B200091E0F92E0AE011E02EE031E042E151E0DF
:100B300060E070E080EA90E40E94A8030E94AD00AB
:100B4000609351017093520180935301909354012B
:100B50000E94AD0060930201709303018093040131
:100B60009093050184E70E942B0564E070E082E029
:100B700091E00E9432052FEF31EE84E021503040A9
:100B80008040E1F700C000008091160190911701AC
:100B90008F3F910599F24091160150911701609194
:100BA00051017091520180915301909154010E9422
:100BB000150190930101809300010E94AD002B016B
:100BC0003C016093020170930301809304019093B0
:100BD00005016091160170911701A0900E01B0906F
:100BE0000F01C0901001D0901101809112019091DD
:100BF0001301A0911401B091150189839A83AB83ED
:100C0000BC83072E000C880B990B0E947007209163
:100C100001012F93209100012F931F921F921F9289
:100C20001F921F921F921F921F9220910D012F93CE
:100C300020910C012F9320910B012F9320910A01F9
:100C40002F93E980FA800B811C81A30192010E94FD
:100C50003501C0900001D09001010FB6F894DEBFBD
:100C60000FBECDBFC114D10461F4682F70E080E0E5
:100C700090E00E946E0790580E943F0760935001D9
:100C800006C0B1E0CB16D10411F480935001B60137
:100C9000809150010E94DF0480E70E942B05809123
:100CA00050010E942B054ACF5058BB27AA270E940B
:100CB0006C060C94E6070E94D80738F00E94DF0704
:100CC00020F039F49F3F19F426F40C94D5070EF464
:100CD000E095E7FB0C94CF07E92F0E94F70758F344
:100CE000BA17620773078407950720F079F4A6F511
:100CF0000C9419080EF4E0950B2EBA2FA02D0B01C1
:100D0000B90190010C01CA01A0011124FF27591B50
:100D100099F0593F50F4503E68F11A16F040A22F56
:100D2000232F342F4427585FF3CF469537952795C7
:100D3000A795F0405395C9F77EF41F16BA0B620BC6
:100D4000730B840BBAF09150A1F0FF0FBB1F661F0D
:100D5000771F881FC2F70EC0BA0F621F731F841F50
:100D600048F4879577956795B795F7959E3F08F076
:100D7000B0CF9395880F08F09927EE0F9795879538
:100D800008950E94AB0708F481E008950E94DA06F6
:100D90000C94E6070E94DF0758F00E94D80740F045
:100DA00029F45F3F29F00C94CF0751110C941A08D5
:100DB0000C94D5070E94F70768F39923B1F35523E4
:100DC00091F3951B550BBB27AA276217730784075E
:100DD00038F09F5F5F4F220F331F441FAA1FA9F3F4
:100DE00035D00E2E3AF0E0E832D091505040E695E2
:100DF000001CCAF72BD0FE2F29D0660F771F881F43
:100E0000BB1F261737074807AB07B0E809F0BB0B35
:100E1000802DBF01FF2793585F4F3AF09E3F510549
:100E200078F00C94CF070C941A085F3FE4F3983ED7
:100E3000D4F3869577956795B795F7959F5FC9F732
:100E4000880F911D9695879597F90895E1E0660FB3
:100E5000771F881FBB1F621773078407BA0720F02C
:100E6000621B730B840BBA0BEE1F88F7E095089595
:100E70000E943F076894B1110C941A0808950E94CB
:100E8000FF0788F09F5798F0B92F9927B751B0F016
:100E9000E1F0660F771F881F991F1AF0BA95C9F7FE
:100EA00014C0B13091F00E941908B1E008950C947B
:100EB0001908672F782F8827B85F39F0B93FCCF32E
:100EC000869577956795B395D9F73EF4909580957B
:100ED000709561957F4F8F4F9F4F0895E89409C09B
:100EE00097FB3EF490958095709561957F4F8F4F5D
:100EF0009F4F9923A9F0F92F96E9BB279395F69573
:100F0000879577956795B795F111F8CFFAF4BB0FF0
:100F100011F460FF1BC06F5F7F4F8F4F9F4F16C054
:100F2000882311F096E911C0772321F09EE8872FDE
:100F3000762F05C0662371F096E8862F70E060E09A
:100F40002AF09A95660F771F881FDAF7880F969513
:100F5000879597F90895990F0008550FAA0BE0E8B7
:100F6000FEEF16161706E807F907C0F0121613066B
:100F7000E407F50798F0621B730B840B950B39F4AB
:100F80000A2661F0232B242B252B21F408950A2611
:100F900009F4A140A6958FEF811D811D089597F951
:100FA0009F6780E870E060E008959FEF80EC08950F
:100FB00000240A9416161706180609060895002438
:100FC0000A9412161306140605060895092E0394B2
:100FD000000C11F4882352F0BB0F40F4BF2B11F426
:100FE00060FF04C06F5F7F4F8F4F9F4F089557FD85
:100FF0009058440F551F59F05F3F71F04795880F87
:1010000097FB991F61F09F3F79F08795089512161D
:1010100013061406551FF2CF4695F1DF08C01616C9
:1010200017061806991FF1CF86957105610508947A
:101030000895E894BB2766277727CB0197F9089591
:101040000E94AB0708F48FEF089516F00C94E208A5
:101050000C94D50768940C94CF070E94FF07A8F35F
:101060009923C1F3AEF3DF93CF931F930F93FF92B6
:10107000C92FDD2788232AF02197660F771F881F45
:10108000DAF720E030E040E85FEB9FE3883920F0BA
:10109000803E38F021968F770E945506E8E6F0E012
:1010A00004C00E945506E5E9F0E00E94F0088B01BB
:1010B000BE01EC01FB2E6F5771097595771F880BE8
:1010C000990B0E94700728E132E741E35FE30E9439
:1010D0008808AF2D9801AE01FF900F911F91CF911D
:1010E000DF910E946C060C94E6070E9488080C941D
:1010F000E6070E94D80738F00E94DF0720F095230A
:1011000011F00C94CF070C94D50711240C941A08F5
:101110000E94F70770F3959FC1F3950F50E0551F9C
:10112000629FF001729FBB27F00DB11D639FAA273C
:10113000F00DB11DAA1F649F6627B00DA11D661F8B
:10114000829F2227B00DA11D621F739FB00DA11DAC
:10115000621F839FA00D611D221F749F3327A00D66
:10116000611D231F849F600D211D822F762F6A2F02
:1011700011249F5750409AF0F1F088234AF0EE0F67
:10118000FF1FBB1F661F771F881F91505040A9F794
:101190009E3F510580F00C94CF070C941A085F3FD6
:1011A000E4F3983ED4F3869577956795B795F795D0
:1011B000E7959F5FC1F7FE2B880F911D9695879548
:1011C00097F908959F3F31F0915020F487957795D6
:1011D0006795B795880F911D9695879597F908950E
:1011E000DF93CF931F930F93FF92EF92DF927B01D8
:1011F0008C01689406C0DA2EEF010E948808FE0177
:10120000E894A5912591359145915591A6F3EF016B
:101210000E946C06FE019701A801DA9469F7DF903D
:10122000EF90FF900F911F91CF91DF910895FB01F7
:10123000DC0102C001900D9241505040D8F7089552
:04124000F894FFCF50
:10124400020000007F430000204183C0FA3F4A0CA3
:10125400023EAE470941FF0000007FC30000F0C01A
:1012640000005CC3000080C000002FC300004040A9
:10127400000018C30000A04000007F430000484263
:00000001FF
